:020000040000FA
:1000000000D8FF1F510300004D260000A50400008A
:1000100045260000A90C0000F93A0000000000008D
:100020000000000000000000000000008D2B000018
:10003000A513000000000000F3030000E92F0000FA
:10004000C51A0000D91A0000ED1A0000011B0000BB
:10005000151B0000291B00003D1B0000511B000068
:10006000651B0000791B00008D1B0000A11B000018
:10007000B51B0000C91B0000DD1B0000F11B0000C8
:10008000051C0000191C00002D1C0000411C000074
:10009000551C0000691C00007D1C0000911C000024
:1000A000A51C0000B91C0000CD1C0000E11C0000D4
:1000B000F51C0000091D00001D1D0000311D000081
:1000C000451D00005D1D0000751D00008D1D000018
:1000D000A51D0000BD1D0000D51D0000ED1D000088
:1000E000051E00001D1E0000351E00004D1E0000F4
:1000F000651E00007D1E0000951E0000AD1E000064
:10010000C51E0000DD1E0000F51E00000D1F0000D2
:10011000251F00003D1F0000551F00006D1F00003F
:10012000851F00009D1F0000B51F0000CD1F0000AF
:10013000E51F0000FD1F0000152000002D2000001D
:10014000452000005D200000752000008D2000008B
:10015000A5200000BD200000D5200000ED200000FB
:10016000052100001D210000352100004D21000067
:10017000652100007D21000095210000AD210000D7
:10018000C5210000DD210000F52100000D22000046
:10019000252200003D220000552200006D220000B3
:1001A000852200009D220000B5220000CD22000023
:1001B000E5220000FD220000152300002D23000091
:1001C000452300005D230000752300008D230000FF
:1001D000A5230000BD230000D5230000ED2300006F
:1001E000052400001D240000352400004D240000DB
:1001F000652400007D24000095240000AD2400004B
:10020000C5240000DD240000F52400000D250000B9
:10021000252500003D250000552500006D25000026
:10022000852500009D250000B5250000CD25000096
:10023000E5250000FD250000152600002D26000004
:100240009303000093030000930300009303000056
:100250009303000093030000930300009303000046
:100260009303000093030000930300009303000036
:100270009303000093030000930300009303000026
:1002800000F002F800F055F80AA090E8000C824453
:100290008344AAF10107DA4501D100F04AF8AFF230
:1002A000090EBAE80F0013F0010F18BFFB1A43F054
:1002B00001031847D8830000F88300000A4410F8AF
:1002C000014B14F00F0508BF10F8015B240908BFAB
:1002D00010F8014B6D1E05D010F8013B6D1E01F8A2
:1002E000013BF9D1641E03D0641E01F8015BFBD110
:1002F0009142E4D37047000000230024002500262B
:10030000103A28BF78C1FBD8520728BF30C148BF78
:100310000B6070471FB507F0F5FC9DE8030000F087
:100320005FFA00F02FFA1FBD10B5002000F0C8FAE8
:1003300010BD00F0EEFA1146FFF7ECFF00F06AFB8B
:1003400000F00CFB03B4FFF7EFFF03BC00F03CFB35
:1003500013484FF07701016012484FF077010160B8
:1003600011484FF4885101600D484FF0760101604B
:100370000C484FF0760101600C4880470C4800475C
:10038000FEE7FEE7FEE7FEE7FEE7FEE7FEE7FEE745
:10039000FEE7FEE707480849084A094B7047000096
:1003A000040805400C08054000080540A530000081
:1003B0008102000000D2FF1F00D8FF1F00D4FF1FE2
:1003C00000D4FF1FEFF3108072B6704780F31088DF
:1003D0007047424A1368012B04D04FF001031360A9
:1003E0003F4A10603F4A11603F484FF08051016022
:1003F0007047EFF3108272B63848016851B34FF07E
:10040000000101603648016891B1EFF309811EF0E7
:10041000100F08BF21ED108B21E9F00F4FF0000401
:100420001EF0100F08BF012441F8044D0068016060
:100430002C490968096808C9B1E8F00F002B18BFFA
:10044000B1EC108B81F309884EF0100E002B18BF11
:100450002EF0100E82F310884EF0040E70472149E2
:100460000860EFF3148222F0040282F314881C491E
:100470004FF00000086019494FF0010008601B4868
:100480001B49D0F8002041EA0201016016484FF0F4
:100490008051016017480068006880F3088861B6E1
:1004A00062B670471EF0040F0CBFEFF30880EFF345
:1004B000098020E9F00F40F804ED40F804ED1EF04B
:1004C000040F0CBF80F3088880F3098800B505F09D
:1004D000B3FD5DF804EB4EF0040E7047E4D0FF1F4F
:1004E00008CFFF1F10CFFF1F04ED00E020ED00E05C
:1004F0000000FFFF08ED00E070B5064600F054F97B
:10050000056806F10B0020F00704B4429CBF0020F0
:1005100070BD2B466A68BAB11068A04210D304F1CE
:10052000080188423CBF5068586007D351681019D1
:1005300041601168091B016058601460101D70BD96
:1005400013465268002AE7D12146284600F034F9C4
:100550000028DED170BD70B50446051F00F024F9F7
:100560000068002C14BF446870BD002C18BFAC425A
:100570003CBF20466468F8D301680A18AA4218BF35
:10058000456003D12A680546114401602868411975
:10059000A1421CBF6C6070BD61686960216808443D
:1005A000286070BD53EA020C00F069802DE9F04B21
:1005B0004FF00006002B1FBFB3FA83F503FA05F4D2
:1005C00024FA05F65E4012BF1643B2FA82F502FA2B
:1005D00005F4C5F120051EBF22FA05FC44EA0C040F
:1005E000203556EA044C4FEA144418BF641C4FF0FF
:1005F00000084FF00009904271EB030C39D3002939
:1006000019BFB1FA81F701FA07F6B0FA80F700FADC
:1006100007F6C7F120071EBF20FA07FC46EA0C06C2
:100620002037B6FBF4FCA7EB0507103F07F01F0BC4
:10063000CBF120062CFA06F60CFA0BFB44BFB346AE
:100640000026202FA4BF5E464FF0000B5BEA060C8D
:1006500008BF4FF0010B19EB0B0948EB0608ABFB89
:10066000027C06FB02CC0BFB03CCC01B71EB0C0124
:10067000C1E70B46024641464846BDE8F08B13B53C
:10068000084318BF4FF0FF300146AFF30080BDE8CC
:100690001C4070470B460146184600F0D7B810B50D
:1006A000431C02E010F8011B71B18107FAD14FF031
:1006B000013202C88C1A8C4314EAC211F9D0C01A54
:1006C0000A0603D0C01E10BDC01A10BD0A0401D016
:1006D000801E10BD0902FCD0401E10BD02F0FF03B9
:1006E00043EA032242EA024200F002B84FF000025D
:1006F0000429C0F0128010F0030C00F01B80CCF134
:10070000040CBCF1020F18BF00F8012BA8BF20F8A1
:10071000022BA1EB0C0100F00DB85FEAC17C24BFF5
:1007200000F8012B00F8012B48BF00F8012B70479F
:100730004FF0000200B5134694469646203922BF7A
:10074000A0E80C50A0E80C50B1F12001BFF4F7AFC5
:10075000090728BFA0E80C5048BF0CC05DF804EBA7
:10076000890028BF40F8042B08BF704748BF20F815
:10077000022B11F0804F18BF00F8012B7047704713
:100780007047704770B5064C7C44064D7D4404E0CC
:100790002046016808448047241DAC42F8D170BD52
:1007A000207F00002C7F000000487047F881FF1F69
:1007B000704770477047704738B504460A460020B6
:1007C0006946AFF30080002808BF38BD0246009993
:1007D000204600F05BF8012038BD012000F091B800
:1007E000F8B5AFF30080054600200C46102000BF8E
:1007F0000646A819A0420DD9324669460020AFF33B
:100800000080070008BF00F07CF80098A04218BFE5
:100810000546C419FFF7C8FF05600746F01D20F024
:1008200007004619284600F00AF8B44208BFF8BD90
:10083000A21B31463868BDE8F84000F027B8002117
:100840000160C0E901107047102070472DE9F041A8
:10085000074615460E461020FFF74EFE04000AD04C
:100860006760C4E9026500F00DF80168216004606A
:100870000020BDE8F0810120FBE700000048704740
:10088000F081FF1F004870472882FF1F0346406821
:100890008C46002818BF88423CBF03464068F8D306
:1008A00018681844884207D00CF1030020F00700B4
:1008B000001D411A521A0146081D0A60FFF74BBE7F
:1008C0002DE9F0410646FFF7DDFF8046454613E07F
:1008D00016B1E068B0420ED120682860D4E9010169
:1008E000D8F8007088472046FFF735FED8F800009A
:1008F000B842EBD100E025462C68002CE8D1BDE8D9
:10090000F08110B500F038F8BDE8104000F02FB8C5
:1009100070477546FFF7B2FFAE460500694653467D
:1009200020F00700854618B020B5FFF733FDBDE87D
:1009300020404FF000064FF000074FF000084FF046
:10094000000BAC46ACE8C009ACE8C009ACE8C00993
:10095000ACE8C00921F007018D46704710B5044688
:10096000AFF300802046BDE81040FFF7EBBC002845
:1009700001D000F029B8704710B5012805D000213A
:1009800003A000F027F8012010BD09A1F8E700003E
:1009900053494752544D454D3A204F7574206F6668
:1009A0002068656170206D656D6F727900000000D0
:1009B0003A2048656170206D656D6F727920636FB4
:1009C000727275707465640001491820ABBEFEE751
:1009D0002600020070B505460C460A2000E06D1C9A
:1009E00000F011F835B128780028F8D102E0641C35
:1009F00000F009F814B120780028F8D1BDE8704063
:100A00000A20AFF3008008B569468DF80000032086
:100A1000ABBE08BD80B507F027F9002080BD0000FF
:100A2000B0B5054600284FF0040008BFB0BD0C4625
:100A300000294FD02279012A84BF0420B0BD0020B4
:100A4000C4F20400854219D040F20040C4F2040010
:100A5000854207D048F29310C0F2000040F25A21BC
:100A600000F09EFC226820796FF35F22002814BFFB
:100A700005F1100005F10C00114612E023680C206E
:100A80001946C4F204006FF35F412AB182881A4309
:100A900082800A0C063004E002881A4320F8022BF8
:100AA0000A0C038842EA03020280A1B105F1200288
:100AB000002307E00020B0EB510F4FEA510102F193
:100AC000010207D0C807F5D0A068DDB2405D013350
:100AD0001070EFE7B0BD0020B0BD0000F0B581B0F0
:100AE00060B30C460E2640F200410546C4F20406EF
:100AF00040F48060C4F204018842A6F10E0707D0DA
:100B000048F29310C0F2000040F2A72100F048FC28
:100B1000A889BD4220EA0400A881288A20EA0400AE
:100B2000288208D13088E14300EA11403080B08843
:100B300000EA1140B080002001B0F0BD042001B0F7
:100B4000F0BD0000B0B5044600284FF0040071D09D
:100B50000D46002908BFB0BD40F2004144F480605A
:100B6000C4F20401884206D048F29310C0F200009B
:100B7000F82100F015FC2878032806D348F29310DA
:100B8000C0F20000F92100F00BFC6878022806D3BF
:100B900048F29310C0F20000FA2100F001FCA8789E
:100BA000022806D348F29310C0F20000FB2100F0A7
:100BB000F7FBE878042806D348F29310C0F200004F
:100BC000FC2100F0EDFB2879022806D348F29310AF
:100BD000C0F20000FD2100F0E3FB00202070297826
:100BE000628801F0030122F0300242EA01116180C3
:100BF0006978628801F0010122F0800242EAC111A5
:100C00006180A978628801F0010122F0400242EA85
:100C100081116180E978628861F30102628029793B
:100C2000A28801F0010122F0040242EA8101A180C0
:100C300084F84700B0BD000070B5044600284FF0AE
:100C4000040024D00D46012988BF70BD40F2004148
:100C500044F48060C4F204011646884218D1022E82
:100C600007D348F29310C0F2000040F2E71100F001
:100C700097FB6089F20347F6FF73F101002D04BF73
:100C80006FF08003CAB2184010436081002070BD2D
:100C900048F29310C0F200004FF4F37100F080FBB3
:100CA000022EDED2E5E7000080B5AFF3008080BD04
:100CB000002808BF7047B0B544F22004C4F2050410
:100CC000A27902F0070341F20022042BC0F27A025B
:100CD0000DD8DFE803F0062F032F03004FF4004286
:100CE00028E048F21001C1F6FF710A6822E0D4F84A
:100CF000E050D4F8E030D4F8E0104FEA137CC1F3B0
:100D0000082ED4F8E0102B0601F01F0303D4591C61
:100D1000B2FBF1F107E048F21001C1F6FF7109687A
:100D20005A1CB1FBF2F10EF1010251430CF1010228
:100D3000B1FBF2F202602168C1F3026122FA01F113
:100D400041602168C1F3025122FA01F181602168FA
:100D500001F0070122FA01F1C1602168C1F302111B
:100D600022FA01F101612168C1F3022122FA01F1A5
:100D700041612168C1F3023122FA01F181612168E8
:100D8000C1F3024122FA01F1C161BDE8B0407047F0
:100D900010B544F23C040428C4F2050408D8DFE886
:100DA00000F00313181D0F00207800F0010010BDA3
:100DB00048F27610C0F2000040F23F6100F0F0FA15
:100DC000607900F0010010BD2078C00800F001003B
:100DD00010BD2078400900F0010010BD2078800986
:100DE00000F0010010BD0000B0B582B00446002044
:100DF000022C019007D348F27610C0F2000040F2B6
:100E0000353100F0CDFA44F22A05C4F20505B5F8F3
:100E1000D4034AF201510843A5F8D403B4B12878A9
:100E2000002100F0FE0028700198B1EB103F15D1B1
:100E30000220FFF7ADFF012818D001980130019082
:100E40000198B0F5805FF3D3092010E015F8040C89
:100E500000F00700052803D1012008E0092006E082
:100E6000287840F001002870002000E00020B5F84C
:100E7000D41341F4254121F00101A5F8D41302B0A7
:100E8000B0BD0000002808BF704770B50446006878
:100E900002380F2807D348F27610C0F200004FF452
:100EA000417100F07DFA60680138102807D348F2DC
:100EB0007610C0F2000040F2053100F071FAA0682F
:100EC00002380F2807D348F27610C0F2000040F233
:100ED000063100F065FAE0681438B0F5E67F07D90E
:100EE00048F27610C0F2000040F2073100F058FAE4
:100EF00020690138182807D348F27610C0F20000A4
:100F00004FF4427100F04CFA44F20015C4F20505AA
:100F1000286848F210010006C1F6FF7120690968CF
:100F20005CBF41F20021C0F27A01B1FBF0F0E16850
:100F3000A0F574224FF2C133A2F51072C0F25E1315
:100F40009A4201FB00F607D348F27610C0F2000087
:100F500040F20F3100F024FA4EF20040CFF2B1100F
:100F600041F601413044C0F64E61884207D348F251
:100F70007610C0F200004FF4447100F011FA44F210
:100F8000FE30C4F2050001884AF20152114301808B
:100F900021682A684FF0706322F0704242EA0171C2
:100FA00001F17041296061682A6803EB0161090E53
:100FB00061F31B622A60A1684FF470032A6803EB97
:100FC0000151090D61F317522A60E1684FF6007371
:100FD000C0F201032A6803EB0121090A61F3102220
:100FE0002A6021692A68013961F304022A600188B4
:100FF00041F4254121F001010180BDE870407047B6
:1010000010B50446022807D348F27610C0F200005B
:1010100040F2E52100F0C4F944F2FE30C4F20500CC
:1010200001884AF201521143018044F20011C4F2D6
:1010300005010A6804F0010322F0800242EAC312AB
:101040000A60018841F4254121F00101018010BDB1
:10105000B0B586B048F200050021C4F20405059140
:101060002968044604916968062C0391A9680291D5
:10107000E868019007D348F27610C0F200004FF400
:10108000777100F08DF940F2000CCAF2A55C0CF10A
:10109000010244F2FE312A614FF62842C4F20501F2
:1010A000CFF6FF728B5C052C03D003F00703052BF2
:1010B00011D14FF6EE23CFF6FF732B604FF0FF33C5
:1010C0006B60AB60EB6000BF059B01330593059B34
:1010D000B3F5007FF8D30B884AF20150184308801B
:1010E000885C04F0070300F0F8001844885408886E
:1010F00040F4254020F0010008800020059000BF4A
:101100000598013005900598B0F5007FF8D3049854
:101110002860039868600298A8600198E860002041
:10112000C5F810C0059000BF0598013005900598DE
:10113000B0F5007FF8D301F067FF06B0B0BD000046
:101140002DE9F04186B048F200050021C4F2040503
:101150000591296804460491696840F200080391EA
:10116000A968CAF2A5580291E868002C019008F11C
:101170000100286173D02378E1788B420AD8627924
:10118000934207D8A079834204D8A3788B4298BFB2
:10119000934267D948F27610C0F2000040F23B411A
:1011A00000F0FEF844F22000C4F20500817901F05D
:1011B0000701052911D14FF6EE21CFF6FF71296005
:1011C0004FF0FF316960A960E96000BF0599013106
:1011D00005910599B1F5007FF8D344F2FE31C4F2D0
:1011E00005010A884AF201531A430A80A278E3787B
:1011F000267842EA03122379677842EA0322637968
:10120000A47942EA033242EA044242EA075242EA3D
:10121000066242EA06720260088840F4254020F027
:101220000100088000200590059801300590059880
:10123000B0F5007FF8D3049828600398686002989E
:10124000A8600198E8600020C5F81080059000BFF4
:101250000598013005900598B0F5007FF8D306B0E9
:10126000BDE8F08121790A1A042A9BD3C9430844B6
:1012700003288FD296E70000B0B582B00446002064
:10128000022C01900DD348F27615C0F200052846D5
:1012900040F2811100F084F8284640F2831100F0FA
:1012A0007FF844F23205C4F20505B5F8CC034AF2E2
:1012B00001510843A5F8CC03B4B12878002100F00F
:1012C000FE0028700198B1EB103F15D10120FFF707
:1012D0005FFD01281CD00198013001900198B0F504
:1012E000805FF3D3092020E015F80C0C00F0070014
:1012F000032803D1012018E0092016E0D5F8CE001C
:10130000000607D415F8080CC00709D101200CE02D
:1013100000200AE0287840F001002870002004E056
:10132000287840F0010028700020B5F8CC1341F473
:10133000254121F00101A5F8CC1302B0B0BD000099
:10134000002808BF704744F21041C4F2050131F88B
:10135000122C4AF201531A4321F8122C02780B780E
:1013600003F07F0343EAC2120A7042780B7802F05E
:10137000010203F0BF0343EA82120A7080780A7800
:1013800000F0030002F0CF0242EA0010087031F8CA
:10139000120C40F4254020F0010021F8120C704797
:1013A0007047000080B5AFF3008080BD10B584B0F9
:1013B00047F62050C0F20000017A4DF200448DF84B
:1013C0000C10D0E90001C4F20104CDE901014FF095
:1013D0007060012101F0D6FA00202021252200238F
:1013E00001F026FA002010212422002301F020FA27
:1013F00001A9204602F084FA08B100BFFEE72046AA
:101400004FF4E13102F048FA08B100BFFEE7204690
:101410000021012202F0B2F820460221012202F04E
:10142000ADF804B010BD000040F20040C4F201006D
:101430000168012902BF43F2102101600160704779
:1014400010B50446102806D348F21C10C0F2000064
:10145000DA21FFF7A5FF40F20840C4F2010001685D
:1014600064F30711016010BD40F20040C4F20100B6
:1014700040F22311016043F2102101607047000027
:10148000B0B50C4647F6415100EB4000C0F20001F8
:101490000A5C0844550903F0E7FD01462846224648
:1014A00001F0D8F8B0BD000070B50D4647F64151C7
:1014B00000EB4000C0F2000114460A5C08445609E3
:1014C00003F0D2FD014630462A46234601F0B0F92A
:1014D00070BD000070B59FED6B0A144605460420F0
:1014E00000294FF0010318BF002C07D1002C08BFC2
:1014F00070BD002B08BF84ED000A70BD4EF20000E5
:10150000C4F204000E46854213D04EF20040C4F2ED
:10151000040085420DD04EF60000C4F2040085425E
:1015200007D048F2D010C0F200004FF49671FFF7D8
:1015300037FF706841F68121C0F20601884207D367
:1015400048F2D010C0F2000040F22D11FFF728FF42
:101550003068082807D348F2D010C0F200004FF4DA
:101560009771FFF71DFF48F2140044F22001C1F605
:10157000FF70C4F20501006809689FED420AC1F3DB
:10158000023120FA01FCD6E90012B0682E6B01236B
:101590008B40F606B0EE403A09D52E6B06F00306F6
:1015A000013601EE106AB8EE411A31EE013A01EE51
:1015B00010CAB8EE412A01EE102AB8EE411A82EEA6
:1015C000012A04EE103AB8EE444AB1EE005A00295E
:1015D000B6EE007A4FF0010382EE042AB1EE084A1B
:1015E00008BFB0EE445A04EE100A35EE033AB8EEE6
:1015F000444A33EE044A0420BCEEC23AB8EE435AE1
:1016000032EE456AB7EE003A35EE033AB4EE476A79
:10161000F1EE10FAB8BFB0EE453AB4EE443AF1EE4E
:1016200010FA7FF763AF9FED185A32EE442AB4EEFA
:10163000452AF1EE10FA3FF759AFBCEEC30A10EE9F
:10164000100ABCFBF0F00023C84000EE100AB8EE10
:10165000400A31EE401A81EE000AE86ABCEEC21A76
:1016600061F31240E86211EE100AE96A420862F37F
:101670000401E962E96AA0EB500060F30C2100204C
:10168000E96233E70000000000007842B0B504468C
:101690004EF20000C4F2040084420D4613D04EF214
:1016A0000040C4F2040084420DD04EF60000C4F2A3
:1016B0000400844207D048F2D010C0F2000040F28B
:1016C000F521FFF76DFE45F2DF60C0F2F000216A00
:1016D000284008432062B0BDB0B504464EF2000079
:1016E000C4F2040084420D4613D04EF20040C4F20E
:1016F000040084420DD04EF60000C4F2040084427F
:1017000007D048F2D010C0F2000040F2FF11FFF7FE
:1017100047FE022D07D348F2D010C0F200004FF46C
:101720000071FFF73DFE206865F300002060B0BD4A
:1017300010B504464EF20000C4F20400844213D0F7
:101740004EF20040C4F2040084420DD04EF6000078
:10175000C4F20400844207D048F2D010C0F2000066
:101760004FF4BD71FFF71CFE206820F001002060DF
:10177000206840F400410020216010BDB0B504464F
:101780004EF20000C4F2040084420D4613D04EF223
:101790000040C4F2040084420DD04EF60000C4F2B2
:1017A0000400844207D048F2D010C0F2000040F29A
:1017B000CD21FFF7F5FDB5F5805F10DA3F2D1CDC7C
:1017C000102D3CD8012040F21611A840C0F20101B2
:1017D000084234D0E069284018BF0120B0BDB5F5FB
:1017E000802F12DBB5F5001F19DBF3D0B5F5800FA4
:1017F000F0D0B5F5000FEDD021E0B5F5007F15DA9A
:10180000402DE7D0802DE5D019E0B5F5803F12DA04
:10181000B5F5805FDED0B5F5804FDBD00FE0B5F5D4
:10182000802FD7D0B5F5801FD4D008E0D2D0B5F541
:10183000806FCFD003E0CDD0B5F5003FCAD048F2DD
:10184000D010C0F2000040F2CE21FFF7A9FDC1E7A1
:1018500070B5044600284FF0040055D00E4600290C
:1018600008BF70BD4EF20000C4F204001546844269
:1018700013D04EF20040C4F2040084420DD04EF664
:101880000000C4F20400844207D048F2D010C0F235
:10189000000040F2A311FFF783FD706841F681213B
:1018A000C0F20601884207D348F2D010C0F200000F
:1018B0004FF4D271FFF774FD3068082807D348F25F
:1018C000D010C0F2000040F2A511FFF769FD2068BA
:1018D000314620F00100206020682A4640F4004094
:1018E0002060206840F0010020602046FFF7F2FDF4
:1018F000216821F040012160216821F4004121602C
:10190000216821F00101216070BD000070B504461E
:101910004EF20000C4F20400164684420D4613D075
:101920004EF20040C4F2040084420DD04EF6000096
:10193000C4F20400844207D048F2D010C0F2000084
:1019400040F22631FFF72CFD6EB1012E03D1606805
:101950002843606070BD48F2D010C0F2000040F231
:101960002731FFF71DFD6068A843606070BD00006F
:1019700010B504464EF20000C4F20400844213D0B5
:101980004EF20040C4F2040084420DD04EF6000036
:10199000C4F20400844207D048F2D010C0F2000024
:1019A00040F24B31FFF7FCFC94F8280010BD00001A
:1019B000F0B581B005464EF20000C4F204001C46AA
:1019C000164685420F4613D04EF20040C4F2040082
:1019D00085420DD04EF60000C4F20400854207D0C7
:1019E00048F2D010C0F2000040F2C311FFF7D8FC5B
:1019F000022F07D348F2D010C0F200004FF4E2717A
:101A0000FFF7CEFC022E07D348F2D010C0F2000040
:101A100040F2C511FFF7C4FC286907F0010120F46A
:101A2000805040EA01302861286906F0010120F465
:101A3000004040EAC13028616EB1B4F5806F07D331
:101A400048F2D010C0F200004FF4E871FFF7A8FC94
:101A50006FF39F240DE0802C07D348F2D010C0F222
:101A6000000040F2CB11FFF79BFC40F2FE3000EA91
:101A70004404286940F2FF3188432044286101B0C2
:101A8000F0BD0000B0B504464EF20000C4F2040000
:101A900084420D4613D04EF20040C4F2040084424A
:101AA0000DD04EF60000C4F20400844207D048F284
:101AB000D010C0F2000040F23D31FFF771FC84F815
:101AC0002450B0BD80B548F25020C1F6FF700068C8
:101AD000002818BF804780BD80B548F25020C1F66D
:101AE000FF704068002818BF804780BD80B548F26D
:101AF0005020C1F6FF708068002818BF804780BD65
:101B000080B548F25020C1F6FF70C068002818BFA9
:101B1000804780BD80B548F25020C1F6FF70006953
:101B2000002818BF804780BD80B548F25020C1F61C
:101B3000FF704069002818BF804780BD80B548F21B
:101B40005020C1F6FF708069002818BF804780BD13
:101B500080B548F25020C1F6FF70C069002818BF58
:101B6000804780BD80B548F25020C1F6FF70006A02
:101B7000002818BF804780BD80B548F25020C1F6CC
:101B8000FF70406A002818BF804780BD80B548F2CA
:101B90005020C1F6FF70806A002818BF804780BDC2
:101BA00080B548F25020C1F6FF70C06A002818BF07
:101BB000804780BD80B548F25020C1F6FF70006BB1
:101BC000002818BF804780BD80B548F25020C1F67C
:101BD000FF70406B002818BF804780BD80B548F279
:101BE0005020C1F6FF70806B002818BF804780BD71
:101BF00080B548F25020C1F6FF70C06B002818BFB6
:101C0000804780BD80B548F25020C1F6FF70006C5F
:101C1000002818BF804780BD80B548F25020C1F62B
:101C2000FF70406C002818BF804780BD80B548F227
:101C30005020C1F6FF70806C002818BF804780BD1F
:101C400080B548F25020C1F6FF70C06C002818BF64
:101C5000804780BD80B548F25020C1F6FF70006D0E
:101C6000002818BF804780BD80B548F25020C1F6DB
:101C7000FF70406D002818BF804780BD80B548F2D6
:101C80005020C1F6FF70806D002818BF804780BDCE
:101C900080B548F25020C1F6FF70C06D002818BF13
:101CA000804780BD80B548F25020C1F6FF70006EBD
:101CB000002818BF804780BD80B548F25020C1F68B
:101CC000FF70406E002818BF804780BD80B548F285
:101CD0005020C1F6FF70806E002818BF804780BD7D
:101CE00080B548F25020C1F6FF70C06E002818BFC2
:101CF000804780BD80B548F25020C1F6FF70006F6C
:101D0000002818BF804780BD80B548F25020C1F63A
:101D1000FF70406F002818BF804780BD80B548F233
:101D20005020C1F6FF70806F002818BF804780BD2B
:101D300080B548F25020C1F6FF70C06F002818BF70
:101D4000804780BD80B548F25020C1F6FF70D0F8C2
:101D50008000002818BF804780BD000080B548F291
:101D60005020C1F6FF70D0F88400002818BF8047CB
:101D700080BD000080B548F25020C1F6FF70D0F859
:101D80008800002818BF804780BD000080B548F259
:101D90005020C1F6FF70D0F88C00002818BF804793
:101DA00080BD000080B548F25020C1F6FF70D0F829
:101DB0009000002818BF804780BD000080B548F221
:101DC0005020C1F6FF70D0F89400002818BF80475B
:101DD00080BD000080B548F25020C1F6FF70D0F8F9
:101DE0009800002818BF804780BD000080B548F2E9
:101DF0005020C1F6FF70D0F89C00002818BF804723
:101E000080BD000080B548F25020C1F6FF70D0F8C8
:101E1000A000002818BF804780BD000080B548F2B0
:101E20005020C1F6FF70D0F8A400002818BF8047EA
:101E300080BD000080B548F25020C1F6FF70D0F898
:101E4000A800002818BF804780BD000080B548F278
:101E50005020C1F6FF70D0F8AC00002818BF8047B2
:101E600080BD000080B548F25020C1F6FF70D0F868
:101E7000B000002818BF804780BD000080B548F240
:101E80005020C1F6FF70D0F8B400002818BF80477A
:101E900080BD000080B548F25020C1F6FF70D0F838
:101EA000B800002818BF804780BD000080B548F208
:101EB0005020C1F6FF70D0F8BC00002818BF804742
:101EC00080BD000080B548F25020C1F6FF70D0F808
:101ED000C000002818BF804780BD000080B548F2D0
:101EE0005020C1F6FF70D0F8C400002818BF80470A
:101EF00080BD000080B548F25020C1F6FF70D0F8D8
:101F0000C800002818BF804780BD000080B548F297
:101F10005020C1F6FF70D0F8CC00002818BF8047D1
:101F200080BD000080B548F25020C1F6FF70D0F8A7
:101F3000D000002818BF804780BD000080B548F25F
:101F40005020C1F6FF70D0F8D400002818BF804799
:101F500080BD000080B548F25020C1F6FF70D0F877
:101F6000D800002818BF804780BD000080B548F227
:101F70005020C1F6FF70D0F8DC00002818BF804761
:101F800080BD000080B548F25020C1F6FF70D0F847
:101F9000E000002818BF804780BD000080B548F2EF
:101FA0005020C1F6FF70D0F8E400002818BF804729
:101FB00080BD000080B548F25020C1F6FF70D0F817
:101FC000E800002818BF804780BD000080B548F2B7
:101FD0005020C1F6FF70D0F8EC00002818BF8047F1
:101FE00080BD000080B548F25020C1F6FF70D0F8E7
:101FF000F000002818BF804780BD000080B548F27F
:102000005020C1F6FF70D0F8F400002818BF8047B8
:1020100080BD000080B548F25020C1F6FF70D0F8B6
:10202000F800002818BF804780BD000080B548F246
:102030005020C1F6FF70D0F8FC00002818BF804780
:1020400080BD000080B548F25020C1F6FF70D0F886
:102050000001002818BF804780BD000080B548F20D
:102060005020C1F6FF70D0F80401002818BF804747
:1020700080BD000080B548F25020C1F6FF70D0F856
:102080000801002818BF804780BD000080B548F2D5
:102090005020C1F6FF70D0F80C01002818BF80470F
:1020A00080BD000080B548F25020C1F6FF70D0F826
:1020B0001001002818BF804780BD000080B548F29D
:1020C0005020C1F6FF70D0F81401002818BF8047D7
:1020D00080BD000080B548F25020C1F6FF70D0F8F6
:1020E0001801002818BF804780BD000080B548F265
:1020F0005020C1F6FF70D0F81C01002818BF80479F
:1021000080BD000080B548F25020C1F6FF70D0F8C5
:102110002001002818BF804780BD000080B548F22C
:102120005020C1F6FF70D0F82401002818BF804766
:1021300080BD000080B548F25020C1F6FF70D0F895
:102140002801002818BF804780BD000080B548F2F4
:102150005020C1F6FF70D0F82C01002818BF80472E
:1021600080BD000080B548F25020C1F6FF70D0F865
:102170003001002818BF804780BD000080B548F2BC
:102180005020C1F6FF70D0F83401002818BF8047F6
:1021900080BD000080B548F25020C1F6FF70D0F835
:1021A0003801002818BF804780BD000080B548F284
:1021B0005020C1F6FF70D0F83C01002818BF8047BE
:1021C00080BD000080B548F25020C1F6FF70D0F805
:1021D0004001002818BF804780BD000080B548F24C
:1021E0005020C1F6FF70D0F84401002818BF804786
:1021F00080BD000080B548F25020C1F6FF70D0F8D5
:102200004801002818BF804780BD000080B548F213
:102210005020C1F6FF70D0F84C01002818BF80474D
:1022200080BD000080B548F25020C1F6FF70D0F8A4
:102230005001002818BF804780BD000080B548F2DB
:102240005020C1F6FF70D0F85401002818BF804715
:1022500080BD000080B548F25020C1F6FF70D0F874
:102260005801002818BF804780BD000080B548F2A3
:102270005020C1F6FF70D0F85C01002818BF8047DD
:1022800080BD000080B548F25020C1F6FF70D0F844
:102290006001002818BF804780BD000080B548F26B
:1022A0005020C1F6FF70D0F86401002818BF8047A5
:1022B00080BD000080B548F25020C1F6FF70D0F814
:1022C0006801002818BF804780BD000080B548F233
:1022D0005020C1F6FF70D0F86C01002818BF80476D
:1022E00080BD000080B548F25020C1F6FF70D0F8E4
:1022F0007001002818BF804780BD000080B548F2FB
:102300005020C1F6FF70D0F87401002818BF804734
:1023100080BD000080B548F25020C1F6FF70D0F8B3
:102320007801002818BF804780BD000080B548F2C2
:102330005020C1F6FF70D0F87C01002818BF8047FC
:1023400080BD000080B548F25020C1F6FF70D0F883
:102350008001002818BF804780BD000080B548F28A
:102360005020C1F6FF70D0F88401002818BF8047C4
:1023700080BD000080B548F25020C1F6FF70D0F853
:102380008801002818BF804780BD000080B548F252
:102390005020C1F6FF70D0F88C01002818BF80478C
:1023A00080BD000080B548F25020C1F6FF70D0F823
:1023B0009001002818BF804780BD000080B548F21A
:1023C0005020C1F6FF70D0F89401002818BF804754
:1023D00080BD000080B548F25020C1F6FF70D0F8F3
:1023E0009801002818BF804780BD000080B548F2E2
:1023F0005020C1F6FF70D0F89C01002818BF80471C
:1024000080BD000080B548F25020C1F6FF70D0F8C2
:10241000A001002818BF804780BD000080B548F2A9
:102420005020C1F6FF70D0F8A401002818BF8047E3
:1024300080BD000080B548F25020C1F6FF70D0F892
:10244000A801002818BF804780BD000080B548F271
:102450005020C1F6FF70D0F8AC01002818BF8047AB
:1024600080BD000080B548F25020C1F6FF70D0F862
:10247000B001002818BF804780BD000080B548F239
:102480005020C1F6FF70D0F8B401002818BF804773
:1024900080BD000080B548F25020C1F6FF70D0F832
:1024A000B801002818BF804780BD000080B548F201
:1024B0005020C1F6FF70D0F8BC01002818BF80473B
:1024C00080BD000080B548F25020C1F6FF70D0F802
:1024D000C001002818BF804780BD000080B548F2C9
:1024E0005020C1F6FF70D0F8C401002818BF804703
:1024F00080BD000080B548F25020C1F6FF70D0F8D2
:10250000C801002818BF804780BD000080B548F290
:102510005020C1F6FF70D0F8CC01002818BF8047CA
:1025200080BD000080B548F25020C1F6FF70D0F8A1
:10253000D001002818BF804780BD000080B548F258
:102540005020C1F6FF70D0F8D401002818BF804792
:1025500080BD000080B548F25020C1F6FF70D0F871
:10256000D801002818BF804780BD000080B548F220
:102570005020C1F6FF70D0F8DC01002818BF80475A
:1025800080BD000080B548F25020C1F6FF70D0F841
:10259000E001002818BF804780BD000080B548F2E8
:1025A0005020C1F6FF70D0F8E401002818BF804722
:1025B00080BD000080B548F25020C1F6FF70D0F811
:1025C000E801002818BF804780BD000080B548F2B0
:1025D0005020C1F6FF70D0F8EC01002818BF8047EA
:1025E00080BD000080B548F25020C1F6FF70D0F8E1
:1025F000F001002818BF804780BD000080B548F278
:102600005020C1F6FF70D0F8F401002818BF8047B1
:1026100080BD000080B548F25020C1F6FF70D0F8B0
:10262000F801002818BF804780BD000080B548F23F
:102630005020C1F6FF70D0F8FC01002818BF804779
:1026400080BD000080B5AFF3008080BD80B5AFF3E2
:10265000008080BD70B51446064606280D4606D398
:1026600048F25810C0F20000AC21FEF799FE207825
:10267000032806D348F25810C0F20000AE21FEF73E
:102680008FFE6079032806D348F25810C0F200008C
:10269000AF21FEF785FEA079022806D348F2581034
:1026A000C0F20000B021FEF77BFE6078022806D35E
:1026B00048F25810C0F20000B121FEF771FEA07878
:1026C000022806D348F25810C0F20000B221FEF7EB
:1026D00067FEE078022806D348F25810C0F20000E6
:1026E000B321FEF75DFE2079022806D348F2581088
:1026F000C0F20000B421FEF753FEE079022806D3B1
:1027000048F25810C0F20000B521FEF749FE00F073
:1027100003F943F60240C4F2050048F2000200EB60
:1027200086100021CFF6FF7219E030F8023C6FF3FB
:10273000DF3320F8023C30F8023C43F0020320F87B
:10274000023CE379068803F0010326F4807646EA2A
:10275000032303800131102900F104005BD025FA26
:1027600001F3DB07F6D0637830F8026C03F0010365
:1027700026F4804646EA833320F8023CA37830F8FA
:10278000026C03F0010326F4805646EA033320F876
:10279000023CE37830F8026C03F0010326F4007683
:1027A00046EA432320F8023C237930F8026C03F018
:1027B000010326F0400646EA831320F8023CA37981
:1027C00030F8026C03F0010326F0040646EA8303A6
:1027D00020F8023C637930F8026C03F0030326F022
:1027E000300646EA031320F8023C2378022B0ED071
:1027F000012B9AD0002BA4D130F8023C6FF3DF33C9
:1028000020F8023C30F8023C23F0020397E730F84E
:10281000023C134393E700F003F8002070BD000072
:1028200043F6FC30C4F205004FF4254101807047A7
:10283000F0B581B01E461746054606280C4607D35C
:1028400048F25810C0F200004FF41A71FEF7A8FDCC
:102850000B2F07D30F2F3AD80120B8404CF20101BB
:10286000084234D0022E07D348F25810C0F20000BC
:1028700040F26A21FEF794FD00F04EF8711EB1FAA5
:1028800081F143F602424909C4F2050207F03F0014
:10289000090202EB8512002305E000BF0133102B73
:1028A00002F104020ED024FA03F7FF07F6D01788CE
:1028B00027F03F0707441780178827F480770F43D6
:1028C0001780EBE7FFF7ACFF002001B0F0BDA7F1E8
:1028D00020001C28C6D348F25810C0F2000040F275
:1028E0006921FEF75DFDBDE7B0B5054606280C463B
:1028F00007D348F25810C0F2000040F22621FEF73C
:102900004FFD43F60C022901C4F20502505A40EA79
:10291000040300205352B0BD43F6FC30C4F205005E
:102920004AF2015101807047B0B504460D4628B106
:1029300043F6EE20C7F20C00204007D048F2FF001B
:10294000C0F2000040F28621FEF72AFD022D07D3D7
:1029500048F2FF00C0F2000040F28721FEF720FDA0
:102960000020CAF2A55048F20001C4F20401421C42
:102970000A610A68012D14BF2243A2430A6008615C
:10298000B0BD000070B504460D4628B140F2862067
:10299000CFF2F000204007D048F2FF00C0F2000064
:1029A00040F2BF21FEF7FCFC48F20406C4F2040624
:1029B0006DB1012D03D13068A043306070BD48F285
:1029C000FF00C0F200004FF43071FEF7E9FC306800
:1029D0002043306070BD000070B504460D4628B13C
:1029E00047F60000CFF6F870204007D048F2FF000D
:1029F000C0F200004FF43C71FEF7D2FC48F208062A
:102A0000C4F204066DB1012D03D13068A0433060DB
:102A100070BD48F2FF00C0F2000040F2F121FEF765
:102A2000BFFC30682043306070BD000070B50446C4
:102A30000D4620B141F2131024EA000038B148F2EB
:102A4000FF00C0F2000040F21531FEF7A9FC48F289
:102A50000C06C4F204066DB1012D03D13068A04309
:102A6000306070BD48F2FF00C0F2000040F2163145
:102A7000FEF796FC30682043306070BD80B544F2AC
:102A8000FE3C44F2C000C4F2050CC4F205004AF258
:102A90000251002340F6FF7EACF800100188734518
:102AA00041F400410180028803F1010102D0002AB3
:102AB0000B46F3D1481E40F6FE7188424FF4254183
:102AC0004FF0000088BF0920ACF8001080BD000066
:102AD00081B000210028ADF8021054D044F2C001AA
:102AE000C4F205010988ADF80210BDF80210C1F367
:102AF00080310170BDF80210C1F340314170BDF862
:102B00000210C1F300318170BDF80210C1F3C02181
:102B1000C170BDF80210C1F380210171BDF802102F
:102B2000C1F340214171BDF80210C1F30021817150
:102B3000BDF80210C9B2C909C171BDF80210C1F3D4
:102B400080110172BDF80210C1F340114172BDF84D
:102B50000210C1F300118172BDF80210C1F300111F
:102B6000C172BDF80210C1F380010173BDF80210FB
:102B7000C1F340014173BDF8021001F001018173FE
:102B8000002001B07047042001B0704780B5AFF35A
:102B9000008080BDF0B581B0044640F6FF70C4F2FD
:102BA00002000E4684424FF004050CDC4DF200009A
:102BB000C4F20100844212D04DF20040C4F2010080
:102BC00084420CD06CE041F20040C4F20200844226
:102BD00005D041F20000C4F20200844260D12046D8
:102BE00000F08EFF002845D0024601EE106A00EE8C
:102BF000102AB8EE411AB1EE002AB8EE400A21EED2
:102C0000021A80EE010ABFEE001A042530EE010A16
:102C1000B5EE400AF1EE10FA42DBBCEEC01A11EE3E
:102C2000107AFF2F3CD8B8EE411A9FED1F2A30EEE4
:102C3000410AB4EE420AF1EE10FA4FF000051BDD36
:102C4000781CA6FB000145F1000306FB03110023DD
:102C5000890241EA90518002FDF7A4FC8038802867
:102C60004FF0000138BF01217F2888BF0125AD004A
:102C7000B1B105E0042513E001214FF0FF3079B137
:102C8000E168802821F0005138BF01F10051E16076
:102C9000A16860F30601A160A06867F30F20A0603F
:102CA000284601B0F0BD00BFACC52737F0B581B0F4
:102CB000044640F6FF70C4F202000E4684424FF014
:102CC00004050CDC4DF20000C4F20100844212D075
:102CD0004DF20040C4F2010084420CD07AE041F28F
:102CE0000040C4F20200844205D041F20000C4F268
:102CF000020084426ED1204600F002FF002853D02B
:102D00000246606935A1C0F3425031F8100001EE6F
:102D1000106A02EE100AB8EE411AB8EE422A00EE2E
:102D2000102A21EE021AB8EE400A31EE011A80EEA6
:102D3000010ABFEE001A042530EE010AB5EE400A82
:102D4000F1EE10FA46DBBCEEC01A11EE107AFF2F3E
:102D500040D8B8EE411A9FED252A30EE410AB4EE74
:102D6000420AF1EE10FA4FF000051FDD791CA6FBB8
:102D7000000CA0FB016E45F1000300FB03E0002303
:102D80000CFB0100400240EAD6517002FDF70AFC3C
:102D9000803880284FF0000138BF01217F2888BF8C
:102DA0000125AD00B1B105E0042513E001214FF08C
:102DB000FF3079B1E168802821F0005138BF01F17E
:102DC0000051E160A16860F30601A160A06867F3AB
:102DD0000F20A060284601B0F0BD00BF20004000D9
:102DE0005D008000BA00000174010002ACC5273705
:102DF000F0B581B0044640F6FF70C4F202000E4602
:102E000084424FF004050CDC4DF20000C4F20100D6
:102E1000844212D04DF20040C4F2010084420CD032
:102E20007FE041F20040C4F20200844205D041F24A
:102E30000000C4F20200844273D1204600F060FE1C
:102E4000002858D00246E06801EE106AC0F3C03096
:102E5000B8EE411AB2EE002A21EE021A02EE100A72
:102E6000B8EE422AB0EE003A00EE102A33EE422AC3
:102E7000B8EE400A21EE021A80EE010ABFEE001AF7
:102E8000042530EE010AB5EE400AF1EE10FA48DBF7
:102E9000BCEEC01A11EE107AFF2F42D8B8EE411ADC
:102EA0009FED212A30EE410AB4EE420AF1EE10FA0B
:102EB0004FF0000521DDC0F10200791CA6FB000CDB
:102EC000A0FB016E45F1000300FB03E000230CFBB7
:102ED0000100C00240EA5651F002FDF763FB803862
:102EE00080284FF0000138BF01217F2888BF0125CD
:102EF000AD00B1B105E0042513E001214FF0FF3032
:102F000079B1E168802821F0005138BF01F100510A
:102F1000E160A16860F30601A160A06867F30F207B
:102F2000A060284601B0F0BDACC52737B0B588B069
:102F300000200090CDF80300ADF81C008DF81E00B5
:102F4000CDE90200CDE9040006908DF8020040F2C0
:102F500002204FF480710124ADF804006846ADF8FA
:102F600000108DF803408DF80640FEF7E9F80225C1
:102F700007A88DF81E50ADF81C40FEF7E1F90120BE
:102F8000FEF77AF93220CDE9045000200694CDE90D
:102F90000255FEF735F802A8FDF774FFFEF764FA54
:102FA0000420FEF74DFAFEF73FFA0120FDF71CFF63
:102FB0000220FDF7EDFE0128FAD10520FEF748F8C2
:102FC00008B0B0BDB0B501380024B4EB106F18BF25
:102FD000B0BD4EF21005CEF20005686002F088F830
:102FE0000720AC602860B0BD80B503F015F904F08F
:102FF000C7FA4DF2F800C1F6FF70016801310160B7
:1030000003F024F980BD000040F28460C4F20100A6
:10301000006848F21002C00742F2004044F200117A
:10302000C0F2F400C1F6FF72C4F2050104BF42F61B
:103030000050C0F23110106011F8DA2C02F00702D3
:10304000052A88BF7047DFE802F0260308030B0E4D
:1030500041F20020C0F27A001DE04FF400401AE077
:103060004FF4004017E00B680A681B06C2F3082CF7
:103070000A6809685CBF41F20020C0F27A0001F0E2
:103080001F014B1CB0FBF3F0120F0CF10101484380
:10309000511CB0FBF1F048F21401C1F6FF71086059
:1030A0007047000080B54EF68850CEF200000168EF
:1030B00041F470010160FFF7A7FF80BD70B50446C1
:1030C00000294FF0040000F08E8045F20006C4F2A3
:1030D000010606F580630D46A11BE31AB1FA81F2E1
:1030E000B3FA83F352095B091A4306F50063E31A46
:1030F000B3FA83F35B091A4306F54063E31AB3FAA4
:1031000083F35B091A43A1F58053B3FA83F3A1F566
:10311000A0515B09B1FA81F11A434909114308BF73
:1031200070BD28780B2807D348F2B010C0F2000019
:103130004FF4A371FEF734F96878022807D348F2F8
:10314000B010C0F2000040F24711FEF729F9A8784C
:10315000022807D348F2B010C0F200004FF4A47167
:10316000FEF71EF9E878022807D348F2B010C0F243
:10317000000040F24911FEF713F92878B4F88010E6
:1031800000F00F0021F0F00141EA0010A4F88000E7
:103190006878B4F8801000F0010021F0040141EAE1
:1031A0008000A4F88000A878B4F8801000F0010036
:1031B00021F0020141EA4000B442A4F8800004D1A9
:1031C000E878012801D106200BE0E878B4F88010F7
:1031D00000F0010021F0080141EAC000A4F88000DD
:1031E0000020A988A18070BDB0B50446A0F1804040
:1031F000A0F5A8304FEAB020052884BF0420B0BD58
:103200000D46022907D348F2B010C0F2000040F288
:103210001E21FEF7C5F8B4F8800065F30000A4F89D
:1032200080000020B0BD000070B50546A0F18040D0
:10323000A0F5A8304FEAB020052884BF042070BD57
:1032400014460E46082907D348F2B010C0F2000019
:103250004FF46571FEF7A4F8022C07D348F2B010C2
:10326000C0F2000040F29531FEF79AF805EB8600B7
:10327000B0F8401104F0010221F4805141EA02311A
:10328000A0F84011002070BDF0B581B00646002ABC
:103290004FF0040000F0FB800F4645F20001C4F23D
:1032A000010101F580651446721A751BB2FA82F3AA
:1032B000B5FA85F55B096D092B4301F50065751BB2
:1032C00001F54061B5FA85F5711A6D09B1FA81F120
:1032D0002B4349091943A2F58053B3FA83F3A2F5AE
:1032E000A0525B09B2FA82F219435209114300F06D
:1032F000CE80082F07D348F2B010C0F2000040F291
:103300005221FEF74DF8A078032807D348F2B010F9
:10331000C0F2000040F25321FEF742F8E0780328A3
:1033200007D348F2B010C0F200004FF41571FEF759
:1033300037F82079042807D348F2B010C0F2000013
:1033400040F25521FEF72CF86079042807D348F2A3
:10335000B010C0F2000040F25621FEF721F8A0792B
:10336000032801D8012807D148F2B010C0F20000AC
:1033700040F25721FEF714F8E079022807D348F20B
:10338000B010C0F200004FF41671FEF709F8607A31
:10339000022807D348F2B010C0F2000040F25921D1
:1033A000FDF7FEFF207A022807D348F2B010C0F2E2
:1033B000000040F25A21FDF7F3FF06EB8700A178E9
:1033C000B0F84021062F61F30102A0F84021E17816
:1033D000B0F8402101F0030122F00C0242EA810121
:1033E000A0F840112179B0F8402101F0030122F04A
:1033F000300242EA0111A0F840116179B0F8402191
:1034000001F0030122F0C00242EA8111A0F840114C
:10341000A179B0F8402101F0030122F4407242EAA0
:103420000121A0F8401126D80121B94011F0550F13
:1034300021D0617AB0F8C02001F0010122F002022F
:1034400042EA4101A0F8C010217AB0F8C02001F092
:10345000010122F0040242EA8101A0F8C010E179E2
:10346000B0F8C02061F30002A0F8C0206189B0F874
:103470004420A0F844102188B0F84020A0F8401063
:10348000B0F8001121F00101A0F80011002001B0F6
:10349000F0BD000040F6FF72C4F2020290424FF00D
:1034A00004020CDC4DF20003C4F20103984212D076
:1034B0004DF20043C4F2010398420CD020E041F2E7
:1034C0000043C4F20203984205D041F20003C4F263
:1034D0000203984214D107294FF0040207DC0129A6
:1034E00010D002290CD1C16841F400310DE0082947
:1034F0000DD0B1F5807F03D1C16841F4801104E0A3
:1035000010467047C16841F48031002203E0C16871
:10351000002241F40021C1601046704740F6FF715F
:10352000C4F2020188424FF004010DDC4DF20002AA
:10353000C4F20102904213D04DF20042C4F20102E3
:1035400090420DD00846704741F20042C4F2020298
:10355000904205D041F20002C4F202029042F1D141
:103560000021C8F21B01C16000214FF6FF7201610A
:1035700041618260816108467047000081B040F679
:10358000FF73C4F2020398424FF0040C0CDC4DF2BE
:103590000003C4F20103984213D04DF20043C4F279
:1035A000010398420DD0C1E041F20043C4F202038E
:1035B000984206D041F20003C4F20203984240F060
:1035C000B5800E2914D8DFE801F00816212C373E0B
:1035D00049545F747F8A959CA700C16802F001027C
:1035E00021F0040141EA8201C1604FF0000C9DE02E
:1035F0004FF0040C9AE0C16802F0010221F02001B2
:1036000041EA4211C1604FF0000C8FE0C16802F046
:10361000010221F0080141EAC201C1604FF0000C33
:1036200084E0C16802F0010221F0800141EAC21188
:10363000C1604FF0000C79E0C1684FF0000C62F3FC
:103640000001C16072E0C16802F0010221F00201D4
:1036500041EA4201C1604FF0000C67E0C16802F02E
:10366000010221F0100141EA0211C1604FF0000C8B
:103670005CE0C16802F0010221F0400141EA8211E0
:10368000C1604FF0000C51E0C16802F001020091EE
:1036900000994FF0000C21F0080141EAC2010091AD
:1036A000009921F0800141EAC21100910099C160A6
:1036B0003CE0C16802F0010221F4806141EA82210C
:1036C000C1604FF0000C31E0C16802F0010221F04E
:1036D000804141EA8271C1604FF0000C26E0C16870
:1036E00002F0010221F0005141EA4271C1604FF045
:1036F000000C1BE001694FF0000C62F30001016156
:1037000014E0416902F0010221F0200141EA421176
:1037100041614FF0000C09E0416902F0010221F41F
:10372000007141EA42214FF0000C4161604601B056
:1037300070470000B0B5044640F6FF70C4F20200C6
:1037400084420D460CDC4DF20000C4F201008442BC
:1037500012D04DF20040C4F2010084420CD019E0B6
:1037600041F20000C4F20200844205D041F2004060
:10377000C4F2020084420DD13F2D15DC681E1F28C3
:103780001FD8012101FA00F08321C8F2000108428C
:103790001FD116E048F23910C0F200004FF4D97181
:1037A000FDF7FEFD3F2DE9DDFF2D04DC402D10D09F
:1037B000802D0ED005E0B5F5807F0AD0B5F5803FAD
:1037C00007D048F23910C0F2000040F2B311FDF703
:1037D000E7FD2068284018BF0120B0BD10B50446A1
:1037E00040F6FF70C4F2020084420CDC4DF200008F
:1037F000C4F2010084421AD04DF20040C4F201002C
:10380000844214D00BE041F20000C4F20200844272
:103810000DD041F20040C4F20200844207D048F2C9
:103820003910C0F2000040F24151FDF7B9FD606867
:10383000C0F3084010BD0000B0B5044640F6FF706C
:10384000C4F2020084420D460CDC4DF20000C4F2CA
:10385000010084421AD04DF20040C4F201008442BB
:1038600014D00BE041F20000C4F2020084420DD0FB
:1038700041F20040C4F20200844207D048F23910FD
:10388000C0F2000040F22A51FDF78AFD6168002075
:1038900065F308016160B0BD80B540F6FF72C4F207
:1038A000020290424FF004020DDC4DF20003C4F21C
:1038B0000103984213D04DF20043C4F20103984231
:1038C0000DD0104680BD41F20043C4F2020398427D
:1038D00005D041F20003C4F202039842F1D14269DB
:1038E000920607D4C268D20107D4FFF781FA0246D4
:1038F000104680BDFFF7DAF980BDFFF74BF980BDB8
:10390000B0B584B004460020CDE90200CDE9000046
:1039100000294FF0040000F0ED800D464DF200014B
:10392000C4F20101621A01F58061611AB2FA82F3F0
:10393000B1FA81F15B0949091943A2F58043B3FA51
:1039400083F3A2F588425B09B2FA82F21943520965
:10395000114300F0CF806878042806D348F239106C
:10396000C0F20000C321FDF71BFD2878032806D311
:1039700048F23910C0F20000C421FDF711FD28798A
:10398000022806D348F23910C0F20000C521FDF725
:1039900007FD6879032806D348F23910C0F2000009
:1039A000C621FDF7FDFCE878022806D348F239105D
:1039B000C0F20000C721FDF7F3FCA878022806D367
:1039C00048F23910C0F20000C821FDF7E9FC287A5E
:1039D000022806D348F23910C0F20000C921FDF7D1
:1039E000DFFCA879022806D348F23910C0F20000A3
:1039F000CA21FDF7D5FCE879022806D348F2391030
:103A0000C0F20000CB21FDF7CBFC0020C8F21B0068
:103A1000E06000204FF6FF7120616061A160A0614D
:103A2000009820F020000090029820F08070029012
:103A300003986A7895F800C062F30100AB78E978E2
:103A40000390029803F0010220F4805040EA023013
:103A50000290029801F0010120F0805040EA0170CC
:103A600002902879019900F0010021F4005141EA07
:103A70004030019001980CF0030120F4C05040EA5E
:103A8000C12001906879022806D0012808D078B9B1
:103A9000029820F480600AE0029840F4007002E08E
:103AA000029820F400700290029840F48060029026
:103AB000A879E9792A7A009B02F0010223F40073C5
:103AC00043EA42220092029A00F0010022F00042F2
:103AD00042EAC1710291029921F4004141EAC030E9
:103AE00002900398A061019820610098606102989B
:103AF000E060002004B0B0BD80B5AFF3008080BDB1
:103B000010B5044640F6FF70C4F2020084420CDC9B
:103B10004DF20000C4F2010084421AD04DF2004080
:103B2000C4F20100844214D00BE041F20000C4F260
:103B3000020084420DD041F20040C4F202008442EF
:103B400007D048F23910C0F2000040F25A61FDF788
:103B500027FC48F2140044F22001C1F6FF70C4F2C1
:103B60000501006809680622C1F30211C840A16975
:103B700002EA4101C84010BD80B501F0D5FA01F05C
:103B800029FB01F053FB80BD80B501F011FB80BD26
:103B900080B501F0B7FA80BD80B501F0E9FA01F017
:103BA00025FB01F04FFB80BDB0B582B004464068F4
:103BB00001210125FEF73AFFA0896946ADF8000012
:103BC000A07B8DF802508DF8030020688DF804501A
:103BD000FCF7B8FF2068217A0022FDF72DF802B02B
:103BE000B0BD0000B0B54EF20044C4F2040420465B
:103BF0000221FDF7C3FD01281DD1204641F202013B
:103C0000FDF744FD48F6D455C1F6FF75287890BB02
:103C100020464FF48021FDF7B1FD01282BD120462D
:103C200008210122FDF772FE00F02CFE014620461D
:103C3000FDF728FF56E020464FF48051FDF79EFD2A
:103C4000012822D120464FF48051FDF71FFD204668
:103C50004FF48021FDF792FD012838D1204608213C
:103C60000022FDF753FE20460821FDF70FFD2046F8
:103C7000FDF77EFEB0BD2878012805D120464FF41F
:103C80008021FDF77BFD40B3B0BD20461021FDF73C
:103C900075FD012818BFB0BD204641F25801002231
:103CA000FDF734FE20461021FDF7F0FC20460021F0
:103CB000FDF712FD48F6D450C1F6FF7001210174E2
:103CC00020460121FDF708FD204642210DE0204657
:103CD00040210022FDF71AFEB0BD204640210122FE
:103CE000FDF714FE204641F210010122FDF70EFE01
:103CF000B0BD000010B54EF20044C4F204042046EA
:103D00004021FDF73BFD012818BF10BD2046FDF7FF
:103D10002FFE00F0CBFD10BD10B54EF20044C4F2F2
:103D2000040420460821FDF729FD01280DD1204675
:103D30004FF48061FDF722FD002818BF10BD00F090
:103D4000A1FD01462046FDF79DFE10BD2DE9F04F77
:103D500087B000284FF0040700F0DD800C46824653
:103D6000501E00211646B1EB902F40F0D4801D4626
:103D700000F024FAB0FBF6F844F24020C0F20F0045
:103D8000B0FBF4F94BF6C0514FF0FF30CFF6F071B5
:103D9000E9FB08104BF6BF52C4F23022511A4FF023
:103DA0000F0171EB00004FF00107C0F0B48044F246
:103DB0004022A9FB0801C0F20F0200230495002550
:103DC000FCF7F0FB0590062001F08EF98346B0B2B7
:103DD00000F046F98BF800004FF48070ABF801005A
:103DE000DAF800004BF200010694059CCBF6FE7158
:103DF00046F2004E4218C4F2010E00218BF8035027
:103E0000ABF804404FEAB223704508BF0621052BEA
:103E100038BF07EBB22148F25300069B1FFA84FC1F
:103E2000CDF804804BF20008C0F200004FF0FF32E2
:103E300000967646CBF6FE78CDF80890CDF80CC00B
:103E400002F04AFADAF80000DAF8141000EB08027F
:103E50004FEAB223B04208BF0625052B38BF07EB57
:103E6000B225D9B330A029464FF0FF32B14602F057
:103E700033FADAF814009BF801204178914228D1F6
:103E800081789BF80220914223D101789BF8002091
:103E9000914204D18088BBF80410884235D0049840
:103EA000E8B3DAF80000002100EB08024FEAB22381
:103EB000484508BF06210120052B38BF00EBB22181
:103EC00048F2AE00C0F200004FF0FF3202F004FAF8
:103ED0001BE0584601F000F905271CE01FA0294609
:103EE0004FF0FF3202F0F8F9DAF804000121FEF792
:103EF00073FD4FF400300121FEF716FDDAF80000E3
:103F00005946FFF7DBF8CAF814B0DAF800000121CF
:103F1000FFF76AF90746384607B0BDE8F08F584604
:103F200001F0DAF80527F6E75B54696D6572412503
:103F300064436825645D2070776D5F73746172748B
:103F40003A20636865636B206578697374696E678E
:103F500020636F6E6669670A000000005B54696D3C
:103F60006572412564436825645D2070776D5F73D9
:103F7000746172743A20696E6974206E6F770A00FA
:103F8000B0B50446B0F900000D4600F00BFBB4F9E3
:103F9000000000F0EBFBB4F9000001F0D7FB204675
:103FA000294601F009FCB0BD48F6C862C108C1F657
:103FB000FF72515C00F0070021FA00F000F00100F0
:103FC0007047000010B548F6C86EC408C1F6FF7E01
:103FD00000F007024FF0010C1EF804300CFA02F258
:103FE00023EA0200002918BF43EA02000EF8040089
:103FF00010BD0000B0B50446002500BF2846FFF7FD
:10400000D3FF20B10135802DF8D10020B0BD0120B3
:104010002560B0BD10B584B004460DF10E0001F06E
:10402000AFFB6188BDF80E00ADF804106168208018
:10403000ADF8060001A8029101F030FBBDF90600C1
:1040400000F006FBBDF9060000F090FBBDF906008C
:1040500000F07CFA04B010BD0120884070470000D9
:1040600001463F284FF0000017DC02391E2988BFA7
:104070007047DFE801F010212D2121212F2121217E
:104080002121212131212121212121212121212110
:1040900021212121330001207047FF290DDDB1F5D9
:1040A000807F04BF08207047B1F5007F0ED0B1F5C6
:1040B000806F04BF0A2070477047402904BF062064
:1040C0007047802904BF07207047F5E70920704733
:1040D0000220704703207047042070470520704776
:1040E000B0B582B0844680B252283ED847F64154DB
:1040F0000CEB4C00C0F20004204485784FF0000E19
:1041000015F0070433D0072C31D01AA000EB84003F
:1041100050F8044C03200C60C5F3C201B0EB951FAE
:104120004FF0000E117022D0A809051D206846F23C
:104130000044A0F18042A2F5A832C4F201041D702F
:104140004FEAB223A04208BF4FF0060E0120052B14
:1041500038BF00EBB22E4A1C0CA071466346009596
:1041600002F0BAF84FF0010E01E04FF0000E704679
:1041700002B0B0BD1880FF1F3480FF1F5080FF1FAA
:104180006C80FF1F8880FF1FA480FF1F5B54696D38
:104190006572412564436825645D206765745F61CD
:1041A000737369676E6D656E743A2070696E202551
:1041B000642046756E6325640A00000080B500F037
:1041C000A9F848F25040C1F6FF70C06880BD0000F9
:1041D00070470000002804BF0420704770B584B009
:1041E000044600680D46A0F1804146F2004C164698
:1041F000A1F5A832C4F2010C00214FEAB2236045B8
:1042000008BF06210120052B38BF00EBB2216A1C34
:1042100010A0334602F060F847F62C50C0F20000C0
:104220008268D0E90010CDE902022068019101AA5C
:104230002946FFF729F826B1206829460122FEF712
:10424000F3FF20462946012200F01EF8002004B0AA
:1042500070BD00BF5B54696D65724125644368257C
:10426000645D2070776D5F6368616E6E656C5F730F
:10427000746172743A2073746172745F6E6F773D0B
:1042800025640A0000B2704760B3072988BF7047F1
:10429000B0B54FF0010E037E94460EFA01F223EA08
:1042A0000204BCF1000F18BF43EA0204026804765E
:1042B000A2F1804046F20045A0F5A830C4F2010505
:1042C00000234FEAB024AA4208BF0623052C38BFBA
:1042D0000EEBB0234A1C04A01946634601F0FCFF14
:1042E000BDE8B040704700BF5B54696D6572412501
:1042F00064436825645D207365745F6368616E6EF6
:10430000656C5F6163746976655F666C61673A20AE
:1043100025640A0070B588B06846FCF7C9FC04AE95
:1043200048F25040DDE9001EDDE902C374CEC1F65B
:10433000FF70C0E9001EC0E90232103080E8701042
:1043400048F21400C1F6FF70016008B070BD0000B3
:1043500001380E2884BF01207047DFE800F0080A0A
:104360000C0E10121416191C1F2225282B000220D7
:1043700070470420704708207047102070472020A5
:10438000704740207047802070474FF4807070471E
:104390004FF4007070474FF4806070474FF4006036
:1043A00070474FF4805070474FF4005070474FF4FF
:1043B000804070474FF40040704700004EF6000206
:1043C000C4F2040290420DD04EF20042C4F2040244
:1043D00090420CD04EF20002C4F2040290421CBF84
:1043E000002070473020002918BF3120704732204C
:1043F000002918BF3320704747F6F870C0F200005C
:1044000006A101F069FF01E003F066F800F04AF947
:104410000028F9D1642002F0D7FEF7E76932635F24
:10442000736C6176655F7461736B0000411E0429D3
:1044300005D8DFE801F00303030303007047002001
:104440007047000010B586B04EF20044C4F2040478
:104450002046FDF76DF948F6D450C1F6FF700121F2
:10446000017441F68020C0F20600049005200391FB
:10447000059003A96A462046FDF7EAF908B106B09F
:1044800010BD2046012100221123FDF791FA40F2D0
:10449000AB10C0F20100019043F6E530C0F200001D
:1044A00001AC0290204601F0F9F8BDF9060000F0D9
:1044B0004DF9BDF9060000F0B9F8BDF9060000F0AD
:1044C00035F840F2A810C0F20200019043F6F54022
:1044D000C0F200000290204601F0E0F8BDF90600AD
:1044E00000F034F9BDF9060000F0A0F8BDF90600AF
:1044F00000F01CF840F2AA10C0F20300019043F64D
:104500001950C0F200000290204601F0C7F8BDF932
:10451000060000F01BF9BDF9060000F087F8BDF9B0
:10452000060000F003F806B010BD0000002848BFE8
:10453000704700F01F01012202FA01F14EF2001251
:104540004009CEF2000242F820107047002848BF10
:10455000704700F01F01012202FA01F14EF2001231
:104560004009CEF2000242F82010704747F6F8707A
:10457000C0F2000006A101F0AFFE00BF01204FF421
:104580008041FEF7B1F94FF47A7002F01DFEF5E7B5
:104590006C65645F7468726561645F656E7472797E
:1045A00000000000002848BF704700F01F010122F2
:1045B00002FA01F14EF280124009CEF2000242F8F6
:1045C0002010BFF34F8FBFF36F8F704710B548F2C5
:1045D000A011C1F6FF7101EB800050F8044C0221DC
:1045E0002068FFF7A7F8012805D120680221FEF70F
:1045F00051FF0120606320680121FFF79BF801282B
:1046000005D120680121FEF745FF02206063206884
:104610000821FFF78FF8012818BF10BD2068082176
:10462000FEF738FF0320606310BD00004EF6145201
:1046300000F00F01CEF20002114400F16042B0F12F
:10464000FF3F4FF0F000C8BF02F5644108707047AB
:104650004EF6145200F00F01CEF20002114400F1A8
:104660006042B0F1FF3F4FF03000C8BF02F5644137
:104670000870704780B50120FFF7A8FF80BD0000DB
:1046800080B50220FFF7A2FF80BD000080B50320A7
:10469000FFF79CFF80BD000080B50420FFF796FF68
:1046A00080BD0000B0B548F6D450C1F6FF70017C63
:1046B00001291BD1002401214DF2FC024EF20045DC
:1046C0000474C46001704FF48071C1F6FF72C4F2CB
:1046D0000405C0E9011228460121FCF7FDFF284628
:1046E00042210122FDF712F92046B0BD0B242046DD
:1046F000B0BD000010B548F2A011C1F6FF7101EB8A
:10470000800050F8044C072120680022FEF736FF95
:10471000206802210022FEF731FF10BD80B5012084
:10472000FFF7E8FF80BD000080B50220FFF7E2FF41
:1047300080BD000080B50320FFF7DCFF80BD0000D6
:1047400080B50420FFF7D6FF80BD0000002848BFD9
:10475000704700F01F01012202FA01F14EF280229F
:104760004009CEF2000242F820107047002848BFEE
:10477000704700F01F01012202FA01F14EF280227F
:104780004009CEF2000242F820107047B0B582B066
:10479000044648F2A010C1F6FF7000EB840050F808
:1047A000045C0DF10701286B00F0B8F858B19DF8D2
:1047B00007002146AFF3008028689DF80710FFF737
:1047C0003BF802B0B0BD286803210022FEF7D6FEF8
:1047D000286807210122FEF7D1FE02B0B0BD00001B
:1047E00080B50120FFF7D2FF80BD000080B5022018
:1047F000FFF7CCFF80BD000080B50320FFF7C6FFA8
:1048000080BD000080B50420FFF7C0FF80BD000020
:1048100070B582B0044648F2A010C1F6FF7000EBFC
:10482000840050F8046C3068FEF7D8FFC5B2284603
:104830002146AFF30080F06A0DF1070329460122FB
:1048400000F0A8F89DF8070000281CBF0420706342
:1048500002B070BD80B50120FFF7DAFF80BD000017
:1048600080B50220FFF7D4FF80BD000080B5032093
:10487000FFF7CEFF80BD000080B50420FFF7C8FF22
:1048800080BD000048F6D451C1F6FF714868CA687F
:10489000824224BFFF207047C8684DF2FC02C1F677
:1048A000FF72105CCA680132CA60704748F6D45182
:1048B000C1F6FF714A68CB68934228BF7047CA6847
:1048C0004DF2FC03C1F6FF739854C8680130C8600C
:1048D00070470000C268D0F804C00A44B2FBFCF381
:1048E00003FB1C2200F1080CC260BFF35F8F00BF06
:1048F0005CE8003F0B444CE80032002AF8D1BFF3DB
:104900005F8F81684268914203D943688360C368BE
:1049100003610020914288BF0120704770B50C46AA
:10492000064600F069F8054618B9304600F004F86C
:10493000207085F0010070BD014600680A69805C46
:104940000A69D1F804C00132B2FBFCF303FB1C225C
:104950000A610831BFF35F8F51E8002F013A41E847
:104960000023002BF8D1BFF35F8F704710B50446CA
:1049700000F042F800281CBF002010BD206821690B
:10498000405C10BD80B582B00DF1070300F002F865
:1049900002B080BD70B51C460D46064632B93046A1
:1049A00000F01CF800281CBF002070BD30462946CE
:1049B00000F004F82070012070BD000080B502688E
:1049C000C368D1540121FFF785FF80BD00218160BC
:1049D000C16001617047000080687047B0B504464F
:1049E000FFF7FAFF0546204600F00EF80021854249
:1049F00028BF01210846B0BD80B5FFF7EDFFB0FA32
:104A000080F0400980BD000040687047B0B50546A1
:104A100008460C4600F064FB286028466C60FFF7EF
:104A2000D5FF2846B0BD000010B504460068002838
:104A300018BF00F04DFB204610BD00002DE9F041ED
:104A40000446007AFFF7F2FCA17A06460846FFF713
:104A5000EDFC617A80460846FFF77AFCE17A07466A
:104A60000846FFF775FC2168054608460121FFF757
:104A7000A5FC0246304639460023FDF7D9FE2068E2
:104A80000021FFF79BFC0246404629460023FDF724
:104A9000CFFEBDE8F0810000B0B5044606980D4693
:104AA000DDE904EC0021C4E900502046A160227237
:104AB000637284F80AE084F80BC0FFF7BFFF4EF280
:104AC0000000C4F2040085420DD04EF60000C4F28E
:104AD0000400854209D04EF20040C4F20400854231
:104AE00007D1202002E0102000E040200121FDF746
:104AF00049FF2046B0BD000010B504460068002103
:104B0000FCF7EAFD204610BD80B5DDF808C04FF087
:104B1000000EA0F800E080F802E080F804E0C18018
:104B200002814381A0F80CC0C0E904EEC0E906EEA2
:104B3000C0F820E080BD000080B500F057FA47F6CD
:104B40003C61C0F200010831016080BD10B58AB03F
:104B50008C460DF10701203100238DF82730022A01
:104B600038BF0A22BCFBF2FE37240EFB12C30A2B0D
:104B700038BF3024234401F8013D9445F446F1D276
:104B800000F01CF80AB010BD00207047704700000C
:104B900080B502681268904780BD000080B500F0C3
:104BA00001F880BD80B51AB1D2B2FFF7CFFF80BD4A
:104BB0000268C9B21268904780BD0000002904BF96
:104BC00000207047B0B5054608460C46FBF767FD68
:104BD000296802464B68284621469847B0BD000028
:104BE000F0B581B07AB115460E460746002400BFE5
:104BF0003868315D02683846904728B10134A542D3
:104C0000F6D12C4600E00024204601B0F0BD0000A3
:104C100047F67061C0F2000108310022C0E90012BD
:104C20007047000010B50446C069FFF7EDFEE1696A
:104C300004460846FFF7D0FE201A10BDB0B5044662
:104C400000694DF200010068C4F2010188420DD0F4
:104C50004DF20041C4F20101884209D041F2000145
:104C6000C4F20201884205D103210BE0012109E0D1
:104C7000022107E0A0F18040A0F50530B0FA80F0F5
:104C80004009810023A001F027FB2068C16820466D
:104C900088472069002500680221002284F82050FE
:104CA000FEF76CFC2069002100680022FEF766FC1C
:104CB000206948F22E011430C0F20001FFF760F9BC
:104CC000206948F23D011C30C0F20001FFF758F99D
:104CD000206948F21C012430C0F20001FFF750F9AE
:104CE000206948F204010C30C0F20001FFF748F9D6
:104CF00020690068FEF712FC206900214068FDF77A
:104D000041FEA069FFF762FEE069FFF75FFE84F8ED
:104D10002050B0BD5B555341525425645D20656EF3
:104D20006428290A0000000080B58069FFF71EFE94
:104D300080BD000080B582B080690DF10701FFF7EA
:104D4000EDFD9DF80710002808BF4FF0FF31084621
:104D500002B080BD80B50268136A40F213429847E2
:104D600080BD00002DE9F041044680691D461746CC
:104D70000E46FFF72BFEE069FFF728FE2169B4F924
:104D80001400097A0022FCF78FFB2169B4F91600A0
:104D9000497A0022FCF788FB2069012140684FF026
:104DA0000108FDF7EFFD206939460068FEF7A8FD10
:104DB000206931460068FEF71BF820690A21006867
:104DC0002A46FEF7DBFB206948F22E011430C0F2C0
:104DD0000001FFF71FF9206948F23D011C30C0F2C5
:104DE0000001FFF717F9206948F21C012430C0F2D6
:104DF0000001FFF70FF9206948F204010C30C0F2FE
:104E00000001FFF707F92069002100680122FEF781
:104E1000B5FB2069012100680122FEF7AFFB206984
:104E20004DF200010068C4F2010188420DD04DF23C
:104E30000041C4F20101884209D041F20001C4F2EC
:104E40000201884205D103210BE0012109E0022182
:104E500007E0A0F18040A0F50530B0FA80F04009ED
:104E6000810003A001F038FA84F82080BDE8F081C9
:104E70005B555341525425645D20626567696E201D
:104E8000636F6D706C657465640A000080B584B0F2
:104E900047F6385CC0F2000CDCE900E302939CF8B2
:104EA0000830CDF804E08DF80C3002F0F003303B10
:104EB000B3FA83F35B0902F00F028DF80830531E3A
:104EC000B3FA83F3022A18BF5A098DF80920002289
:104ED0008DF8062001AA0123FFF744FF04B080BD2E
:104EE00010B5044690F8200068B1E069FFF784FD32
:104EF000002818BF10BD00BF00F0C4F9E069FFF73B
:104F00007BFD0028F8D010BDB0B5044690F8200015
:104F1000B8B10D46E069FFF761FD28B100F0B2F9C4
:104F2000F8E700BF00F0AEF9E06929460022FFF77C
:104F300029FD0028F6D02069082100680122FEF72B
:104F40001DFB0120B0BD000080B58069FFF744FD66
:104F500080BD00002DE9F04381B0DDE908981E46D0
:104F600017460D460446FFF7E7FD47F68860C0F296
:104F7000000008302060002084F820001420256103
:104F8000A782E68200F0B0F84946FFF73FFDA06136
:104F9000142000F0A9F841460546FFF737FD2169C6
:104FA000A069E561C86220460D6301B0BDE8F083E9
:104FB00010B5044647F688618069C0F200010831E7
:104FC000216018B1FFF730FD00F086F8E06918B1F4
:104FD000FFF72AFD00F080F8226900212046A16138
:104FE000E161D162116310BD0120704780B5FFF708
:104FF0000FFE47F6BC61C0F20001083101604FF4BA
:105000007A710022C0E9021280BD00000022032351
:105010004FF4C87C0272C0E9033CC0E9002170472C
:10502000002202704CF6030282818160704700000A
:10503000F0B581B0069F1C4615460E4600F00CF8F0
:1050400047F6E061C0F20001083101600671457168
:105050008471C77101B0F0BD47F6EC61C0F2000188
:1050600008310160704700000078012100F01F0046
:1050700001FA00F080B27047007800F0030148F2B6
:105080000000C1F6FF70012918BF00207047000022
:105090002DE9F0410C468046C61C0027032500BFC1
:1050A00016F8011F20460A22FFF778FD0744204624
:1050B0002E21FFF76DFD013D0744F1D198F807104F
:1050C00020460A22FFF76AFD3844BDE8F08100005F
:1050D00080B5FBF740FA80BD80B5FBF73CFA80BD98
:1050E00080B5FBF709FA80BD80B5FBF705FA80BDF6
:1050F0004EF62350CEF20000F02101707047000000
:10510000FEE7000080B582B048F6F8504FF4967C78
:10511000C1F6FF7096214FF47A72C823CDF800C013
:10512000FFF7F2FC02B080BD10B584B0082000216A
:1051300048F64464CDE90010C1F6FF744EF2000158
:105140004FF4802CC4F20401204600220923CDF83C
:1051500008C0FFF7A1FC44F6F92040F20002C0F2BB
:105160000000C0F200022146FBF794FA04B010BD23
:10517000B0B582B048F27045C1F6FF7548F2C00183
:105180004024C1F6FF71284607220B2300940194A6
:10519000FFF7E0FE44F6B17040F20002C0F20000FA
:1051A000C0F200022946FBF775FA02B0B0BD00005C
:1051B00080B582B048F254504FF0000CC1F6FF7039
:1051C000002100220023CDF800C0FFF731FF02B01C
:1051D00080BD000080B548F6E46048F64461C1F641
:1051E000FF70C1F6FF71FFF711FF80BDB0B582B04F
:1051F00048F29445C1F6FF7548F2F8014024C1F623
:10520000FF7128460A220F2300940194FFF7A2FEA3
:1052100044F6B17040F20002C0F20000C0F2000299
:105220002946FBF737FA02B0B0BD000080B548F65A
:10523000E85048F64461C1F6FF70C1F6FF71FFF710
:10524000EFFE80BDB0B582B048F2B845C1F6FF753B
:1052500048F230114024C1F6FF7128461C221D235C
:1052600000940194FFF776FE44F6B17040F200021C
:10527000C0F20000C0F200022946FBF70BFA02B0B0
:10528000B0BD000080B5AFF3008080BD002804BF32
:1052900000207047C1B209B101200CE010F47F4139
:1052A00002D0090A092006E010F47F0107BF010EB1
:1052B0001920090C112047F6F862C0F20002515C77
:1052C000084470474CF69870C1F6FF700168081AE0
:1052D00018BF01207047000010B582B0044601A835
:1052E000FEF788FE50B101980121FEF76BFE019890
:1052F000FEF7C8FF2080002002B010BD012002B0E0
:1053000010BD000080B5B0F90000FEF761FF00217C
:10531000FEF758FE002080BD2DE9F04782B004461C
:10532000DDF83090DDE90A8A14301D4616460F4636
:1053300000F0F4FF284623214246C4E90876C4E978
:105340000A5801F093F904F120030FCB1A4447F2F5
:105350000103043AC0F2000300F03CFFBAF1080F69
:10536000E06104D310A019A1A72200F0A5FC47F228
:105370002542002704F14400C0F2000221462346E2
:1053800084F836A084F835A0C4E90E79C4F84090BA
:10539000276384F83470C4E91C770097019702F002
:1053A000F7F902B0BDE8F0877072696F72697479BD
:1053B000203C2052545F5448524541445F5052496A
:1053C0004F524954595F4D41580000005F72745F5D
:1053D0007468726561645F696E69740080B5DDF838
:1053E00008C000F11C0E0CF0FE0C80F809C014304F
:1053F0004FF0000C8EE80E1000F094FF80BD00000E
:1054000080B5143000F0ECFF80BD0000B0B504465C
:10541000FAF7D8FF216F054609B12046884728468C
:10542000FAF7D4FFB0BD000010B50446C07B0028D9
:1054300018BF10BD2046FEF7B7FB01200022E07325
:105440002068C4F2040202F5806148F2FB0448F2CD
:10545000F603C0F20004884248F2F101C0F20003F2
:1054600008BF1C46C0F20001904203A018BF2146AD
:1054700000F032FF10BD00BF5B25735D20696E69CF
:105480007469616C697A6564206465766963650A2C
:105490000000000070B50446C07B002808BF70BD46
:1054A00000222068C4F204020D4602F5806148F231
:1054B000FB0648F2F603C0F20006884248F2F1010A
:1054C000C0F2000308BF1E46C0F20001904208A0CF
:1054D0002A4618BF314600F0FFFE266820462946BE
:1054E000FEF7BAFD01463046FBF7F8FA70BD00BF83
:1054F0005B25735D2064697361626C65206368611C
:105500006E6E656C2025640A00000000B0B584B0A2
:1055100040F2000E04460068C4F2040E13460D4625
:105520008DF80F200EF5806148F2FB0248F2F60C70
:10553000C0F20002884248F2F101C0F2000C08BF3C
:105540006246C0F20001704518BF11460AA02A4603
:1055500000F0C2FE20462946FEF77EFD217A00902B
:105560008DF804100DF10F01206802916946FBF7D8
:1055700057FA04B0B0BD00BF5B25735D20656E6156
:10558000626C65206368616E6E656C2025642C20FA
:1055900073616D706C655F74696D653D25640A00AB
:1055A00080B584B06846FDF793FA9DF801000128A4
:1055B00004D1FDF763FA0BA000F08EFE9DF80D00FC
:1055C000012804D1FDF75AFA11A000F085FE9DF8DC
:1055D0000600012804D1FDF751FA12A000F07CFE6C
:1055E00004B080BD5854414C206572726F722C20FB
:1055F000636865636B205854414C20636F6E666925
:105600006720616E6420636972637569740A0000C3
:1056100052657365742070696E2072657365740AD3
:1056200000000000536F66747761726520726573C5
:1056300065740A0080B5FDF779FC02F049FBFBF7C1
:10564000B5FEFFF7ADFF48F21400C1F6FF70016828
:1056500001A000F041FE80BD737973636C6B203A4A
:1056600020256C640000000010B5844603684CF6E9
:10567000CD40CCF6CC40A3FB000E03F00F001A097E
:105680004FEADE0404EB84040A2904BF4FEADE0279
:10569000A3EB4400CCF8002010BD0000B0B50546D7
:1056A000406818B920A05521FBF77AFEB5F800C074
:1056B00025244FEA5C1101EB4100B5F9021000F11D
:1056C0001003B1EB430F4FF0000304EB40004FF029
:1056D0000002B8BF01238842B8BF0122202904DBA1
:1056E00053EA02001CBF0420B0BD41F25C02C4F2C8
:1056F000050252F8210040F2FF136FF35F20984239
:105700001CBF0720B0BD52F821006CF3080042F81E
:1057100021006868B5F9021048F25022C1F6FF7204
:1057200042F821000020B0BD2E2E2F6472697665EC
:10573000722F7372632F68633332663436305F6959
:105740006E74657272757074732E630081B27F29F6
:1057500082BF04210846704741F25C01C4F2050192
:1057600051F8202040F2FF131A4341F8202048F25C
:105770005022C1F6FF72002142F8201008467047FF
:10578000B0B50C460546FFF7A7FDB5F9001003A01C
:10579000224600F0A1FD0020B0BD00BF49525125B6
:1057A00064206175746F2D61737369676E65642021
:1057B000746F2025730A0000B0B50C460546FFF74C
:1057C000A1FDB5F9002003A0214600F085FD0020D1
:1057D000B0BD00BF2573206175746F2D726573694C
:1057E000676E65642049525125640A0070B584B023
:1057F0001E20012100F062F800204FF400713322D6
:105800000023FDF715F800204FF4807132220023A9
:10581000FDF70EF820200121FDF7B4F8FEF712FE87
:1058200048F2D45148F2DC444FF47A704FF4806669
:10583000C1F6FF71C1F6FF7444F26D520625CDE941
:105840000016039014A1C0F2000220460023029526
:1058500001F076FC48F6D410029548F25C55C1F68A
:10586000FF70C1F6FF7544F2F9324FF0640CCDE9D8
:1058700000060CA1C0F2000228460023CDF80CC09F
:1058800001F05EFC204601F02DFD284601F02AFDC6
:10589000002004B070BD00BF6C65645F7468726501
:1058A00061640000693263536C617665000000003A
:1058B00080B500F051FAFFF799FF80BD5228C8BFAC
:1058C0007047F0B585B00D4647F64151044600EBF0
:1058D0004000C0F20001084440788DF8100004A890
:1058E000FFF7CAFB98B106469DF81000042D4FEA59
:1058F000900708D13046FFF797FD304639463222EF
:10590000FFF704FE03E030463946FFF7C3FD0020F1
:10591000052D039002901DD8DFE805F00305091C52
:10592000102000200BE001208DF8080003E000208B
:105930008DF8080001208DF80C0002E002208DF89F
:105940000800204600210122FBF7AEFD02A92046F7
:10595000FBF796FD05B0BDE8F040704701A90DF1D9
:1059600003020DF102032046FEF7BAFB0028F1D036
:1059700001984FF47A7110220123FEF7E7F900280D
:10598000E8D101989DF803100122FEF723FC9DF851
:10599000021020460022FBF787FDDBE770B548F6D2
:1059A0002065C1F6FF7529680446814207D948F28F
:1059B000BC4126A0C0F20001A12200F07DF948F60A
:1059C0001C66C1F6FF763068A04207D848F2BC4199
:1059D00026A0C0F20001A22200F06EF9608838B162
:1059E00048F2BC412CA0C0F20001A32200F064F9EF
:1059F000286861680144A14212D04A8882B932689D
:105A000091420DD048F6D862C1F6FF7213688B42FE
:105A100008BF14604A6862604968221A01448A60BB
:105A2000A1684218A24208BF70BD538803B170BD7F
:105A300048F6D863C1F6FF731E68A64208BF1A6015
:105A40006368536062681044816070BD2872745F3F
:105A500075696E74385F74202A296D656D203E3D2E
:105A600020686561705F7074720000002872745F56
:105A700075696E74385F74202A296D656D203C202D
:105A80002872745F75696E74385F74202A2968659E
:105A900061705F656E6400006D656D2D3E757365A8
:105AA00064203D3D203000002DE9F04F8BB01E46B4
:105AB000169B0446580648F2983048F2873BC0F2DD
:105AC0000000C0F2000B58BF8346D8060D4648BF01
:105AD00023F00103D8074FF0300108BF20219807B9
